{
  "contractName": "Delance",
  "abi": [
    {
      "inputs": [
        {
          "internalType": "address payable",
          "name": "_address",
          "type": "address"
        },
        {
          "internalType": "uint256",
          "name": "_deadline",
          "type": "uint256"
        },
        {
          "internalType": "uint256",
          "name": "_price",
          "type": "uint256"
        }
      ],
      "stateMutability": "payable",
      "type": "constructor",
      "payable": true
    },
    {
      "anonymous": false,
      "inputs": [
        {
          "indexed": false,
          "internalType": "uint256",
          "name": "new_deadline",
          "type": "uint256"
        }
      ],
      "name": "DeadlineChanged",
      "type": "event"
    },
    {
      "anonymous": false,
      "inputs": [
        {
          "indexed": false,
          "internalType": "string",
          "name": "_title",
          "type": "string"
        },
        {
          "indexed": false,
          "internalType": "uint256",
          "name": "_amount",
          "type": "uint256"
        },
        {
          "indexed": false,
          "internalType": "bool",
          "name": "locked",
          "type": "bool"
        },
        {
          "indexed": false,
          "internalType": "bool",
          "name": "paid",
          "type": "bool"
        }
      ],
      "name": "RequestCreated",
      "type": "event"
    },
    {
      "anonymous": false,
      "inputs": [
        {
          "indexed": false,
          "internalType": "address payable",
          "name": "freelancer",
          "type": "address"
        },
        {
          "indexed": false,
          "internalType": "uint256",
          "name": "amount",
          "type": "uint256"
        }
      ],
      "name": "RequestPaid",
      "type": "event"
    },
    {
      "anonymous": false,
      "inputs": [
        {
          "indexed": false,
          "internalType": "bool",
          "name": "locked",
          "type": "bool"
        }
      ],
      "name": "RequestUnlocked",
      "type": "event"
    },
    {
      "anonymous": false,
      "inputs": [],
      "name": "Withdraw_All_Ether",
      "type": "event"
    },
    {
      "inputs": [],
      "name": "contract_balance",
      "outputs": [
        {
          "internalType": "uint256",
          "name": "",
          "type": "uint256"
        }
      ],
      "stateMutability": "view",
      "type": "function",
      "constant": true
    },
    {
      "inputs": [],
      "name": "deadline",
      "outputs": [
        {
          "internalType": "uint256",
          "name": "",
          "type": "uint256"
        }
      ],
      "stateMutability": "view",
      "type": "function",
      "constant": true
    },
    {
      "inputs": [],
      "name": "employer",
      "outputs": [
        {
          "internalType": "address",
          "name": "",
          "type": "address"
        }
      ],
      "stateMutability": "view",
      "type": "function",
      "constant": true
    },
    {
      "inputs": [],
      "name": "freelancer",
      "outputs": [
        {
          "internalType": "address",
          "name": "",
          "type": "address"
        }
      ],
      "stateMutability": "view",
      "type": "function",
      "constant": true
    },
    {
      "inputs": [],
      "name": "price",
      "outputs": [
        {
          "internalType": "uint256",
          "name": "",
          "type": "uint256"
        }
      ],
      "stateMutability": "view",
      "type": "function",
      "constant": true
    },
    {
      "inputs": [
        {
          "internalType": "uint256",
          "name": "",
          "type": "uint256"
        }
      ],
      "name": "requests",
      "outputs": [
        {
          "internalType": "string",
          "name": "title",
          "type": "string"
        },
        {
          "internalType": "uint256",
          "name": "amount",
          "type": "uint256"
        },
        {
          "internalType": "bool",
          "name": "locked",
          "type": "bool"
        },
        {
          "internalType": "bool",
          "name": "paid",
          "type": "bool"
        }
      ],
      "stateMutability": "view",
      "type": "function",
      "constant": true
    },
    {
      "stateMutability": "payable",
      "type": "receive",
      "payable": true
    },
    {
      "inputs": [
        {
          "internalType": "string",
          "name": "_title",
          "type": "string"
        },
        {
          "internalType": "uint256",
          "name": "_amount",
          "type": "uint256"
        }
      ],
      "name": "createRequest",
      "outputs": [],
      "stateMutability": "nonpayable",
      "type": "function"
    },
    {
      "inputs": [],
      "name": "getAllRequest",
      "outputs": [
        {
          "components": [
            {
              "internalType": "string",
              "name": "title",
              "type": "string"
            },
            {
              "internalType": "uint256",
              "name": "amount",
              "type": "uint256"
            },
            {
              "internalType": "bool",
              "name": "locked",
              "type": "bool"
            },
            {
              "internalType": "bool",
              "name": "paid",
              "type": "bool"
            }
          ],
          "internalType": "struct Delance.Request[]",
          "name": "",
          "type": "tuple[]"
        }
      ],
      "stateMutability": "view",
      "type": "function",
      "constant": true
    },
    {
      "inputs": [
        {
          "internalType": "uint256",
          "name": "_index",
          "type": "uint256"
        }
      ],
      "name": "unlockRequest",
      "outputs": [],
      "stateMutability": "nonpayable",
      "type": "function"
    },
    {
      "inputs": [
        {
          "internalType": "uint256",
          "name": "_index",
          "type": "uint256"
        }
      ],
      "name": "withdraw",
      "outputs": [],
      "stateMutability": "nonpayable",
      "type": "function"
    },
    {
      "inputs": [
        {
          "internalType": "uint256",
          "name": "new_deadline",
          "type": "uint256"
        }
      ],
      "name": "ChangeDeadline",
      "outputs": [],
      "stateMutability": "nonpayable",
      "type": "function"
    },
    {
      "inputs": [],
      "name": "WithdrawAll",
      "outputs": [],
      "stateMutability": "nonpayable",
      "type": "function"
    }
  ],
  "bytecode": "0x60806040526000600660006101000a81548160ff0219169083151502179055506000600660016101000a81548160ff021916908315150217905550604051620022da380380620022da83398181016040528101906200005f919062000267565b3373ffffffffffffffffffffffffffffffffffffffff168373ffffffffffffffffffffffffffffffffffffffff161415620000d1576040517f08c379a0000000000000000000000000000000000000000000000000000000008152600401620000c89062000324565b60405180910390fd5b80341462000116576040517f08c379a00000000000000000000000000000000000000000000000000000000081526004016200010d9062000396565b60405180910390fd5b336000806101000a81548173ffffffffffffffffffffffffffffffffffffffff021916908373ffffffffffffffffffffffffffffffffffffffff16021790555082600160006101000a81548173ffffffffffffffffffffffffffffffffffffffff021916908373ffffffffffffffffffffffffffffffffffffffff1602179055508142620001a59190620003e7565b600281905550806003819055508060048190555050505062000444565b600080fd5b600073ffffffffffffffffffffffffffffffffffffffff82169050919050565b6000620001f482620001c7565b9050919050565b6200020681620001e7565b81146200021257600080fd5b50565b6000815190506200022681620001fb565b92915050565b6000819050919050565b62000241816200022c565b81146200024d57600080fd5b50565b600081519050620002618162000236565b92915050565b600080600060608486031215620002835762000282620001c2565b5b6000620002938682870162000215565b9350506020620002a68682870162000250565b9250506040620002b98682870162000250565b9150509250925092565b600082825260208201905092915050565b7f656d706c6f7965722063616e6e6f7420686972652068696d73656c6600000000600082015250565b60006200030c601c83620002c3565b91506200031982620002d4565b602082019050919050565b600060208201905081810360008301526200033f81620002fd565b9050919050565b7f4465706f73697420616d6f756e74203d207072696365206f6620657468657200600082015250565b60006200037e601f83620002c3565b91506200038b8262000346565b602082019050919050565b60006020820190508181036000830152620003b1816200036f565b9050919050565b7f4e487b7100000000000000000000000000000000000000000000000000000000600052601160045260246000fd5b6000620003f4826200022c565b915062000401836200022c565b9250827fffffffffffffffffffffffffffffffffffffffffffffffffffffffffffffffff03821115620004395762000438620003b8565b5b828201905092915050565b611e8680620004546000396000f3fe6080604052600436106100ab5760003560e01c806381d12c581161006457806381d12c58146101a1578063a035b1fe146101e1578063a37dda2c1461020c578063aa6e90c014610237578063ae200e7914610260578063e5a315491461028b576100b2565b8063057440d3146100b75780631cc19867146100e257806329dcb0cf1461010b5780632e1a7d4d14610136578063545569ba1461015f5780635a648bc51461018a576100b2565b366100b257005b600080fd5b3480156100c357600080fd5b506100cc6102b4565b6040516100d991906110de565b60405180910390f35b3480156100ee57600080fd5b5061010960048036038101906101049190611139565b6102ba565b005b34801561011757600080fd5b50610120610483565b60405161012d91906110de565b60405180910390f35b34801561014257600080fd5b5061015d60048036038101906101589190611139565b610489565b005b34801561016b57600080fd5b5061017461081d565b604051610181919061134e565b60405180910390f35b34801561019657600080fd5b5061019f61094e565b005b3480156101ad57600080fd5b506101c860048036038101906101c39190611139565b610bb0565b6040516101d894939291906113c9565b60405180910390f35b3480156101ed57600080fd5b506101f6610c92565b60405161020391906110de565b60405180910390f35b34801561021857600080fd5b50610221610c98565b60405161022e9190611456565b60405180910390f35b34801561024357600080fd5b5061025e600480360381019061025991906115a6565b610cbe565b005b34801561026c57600080fd5b50610275610ed5565b6040516102829190611456565b60405180910390f35b34801561029757600080fd5b506102b260048036038101906102ad9190611139565b610ef9565b005b60045481565b60008054906101000a900473ffffffffffffffffffffffffffffffffffffffff1673ffffffffffffffffffffffffffffffffffffffff163373ffffffffffffffffffffffffffffffffffffffff1614610348576040517f08c379a000000000000000000000000000000000000000000000000000000000815260040161033f9061164e565b60405180910390fd5b6005805490508110801561035d575060008110155b61039c576040517f08c379a0000000000000000000000000000000000000000000000000000000008152600401610393906116ba565b60405180910390fd5b6000600582815481106103b2576103b16116da565b5b90600052602060002090600302019050600115158160020160009054906101000a900460ff1615151461041a576040517f08c379a000000000000000000000000000000000000000000000000000000000815260040161041190611755565b60405180910390fd5b60008160020160006101000a81548160ff0219169083151502179055507f6917bd44e44c6202f36553b9769ed68f429767151c48c8015c03d6f15d7e4e458160020160009054906101000a900460ff166040516104779190611775565b60405180910390a15050565b60025481565b600160009054906101000a900473ffffffffffffffffffffffffffffffffffffffff1673ffffffffffffffffffffffffffffffffffffffff163373ffffffffffffffffffffffffffffffffffffffff1614610519576040517f08c379a0000000000000000000000000000000000000000000000000000000008152600401610510906117dc565b60405180910390fd5b6005805490508110801561052e575060008110155b61056d576040517f08c379a0000000000000000000000000000000000000000000000000000000008152600401610564906116ba565b60405180910390fd5b60001515600660009054906101000a900460ff161515146105c3576040517f08c379a00000000000000000000000000000000000000000000000000000000081526004016105ba90611848565b60405180910390fd5b6000600582815481106105d9576105d86116da565b5b90600052602060002090600302019050600015158160020160009054906101000a900460ff16151514610641576040517f08c379a0000000000000000000000000000000000000000000000000000000008152600401610638906118b4565b60405180910390fd5b600015158160020160019054906101000a900460ff16151514610699576040517f08c379a000000000000000000000000000000000000000000000000000000000815260040161069090611920565b60405180910390fd5b6001600660006101000a81548160ff0219169083151502179055506000600160009054906101000a900473ffffffffffffffffffffffffffffffffffffffff1673ffffffffffffffffffffffffffffffffffffffff16826001015460405161070090611971565b60006040518083038185875af1925050503d806000811461073d576040519150601f19603f3d011682016040523d82523d6000602084013e610742565b606091505b5050905080610786576040517f08c379a000000000000000000000000000000000000000000000000000000000815260040161077d906119d2565b60405180910390fd5b81600101546004600082825461079c9190611a21565b9250508190555060018260020160016101000a81548160ff0219169083151502179055506000600660006101000a81548160ff0219169083151502179055507f8d3c4c2bd7fcd40b8e44b6e7331c1b5e1fd5cd51c8a6ff8a2051bc8280b1d88c338360010154604051610810929190611a76565b60405180910390a1505050565b60606005805480602002602001604051908101604052809291908181526020016000905b82821015610945578382906000526020600020906003020160405180608001604052908160008201805461087490611ace565b80601f01602080910402602001604051908101604052809291908181526020018280546108a090611ace565b80156108ed5780601f106108c2576101008083540402835291602001916108ed565b820191906000526020600020905b8154815290600101906020018083116108d057829003601f168201915b50505050508152602001600182015481526020016002820160009054906101000a900460ff161515151581526020016002820160019054906101000a900460ff16151515158152505081526020019060010190610841565b50505050905090565b60008054906101000a900473ffffffffffffffffffffffffffffffffffffffff1673ffffffffffffffffffffffffffffffffffffffff163373ffffffffffffffffffffffffffffffffffffffff16146109dc576040517f08c379a00000000000000000000000000000000000000000000000000000000081526004016109d39061164e565b60405180910390fd5b60001515600660019054906101000a900460ff16151514610a32576040517f08c379a0000000000000000000000000000000000000000000000000000000008152600401610a2990611b4c565b60405180910390fd5b6002544211610a76576040517f08c379a0000000000000000000000000000000000000000000000000000000008152600401610a6d90611bde565b60405180910390fd5b6001600660016101000a81548160ff02191690831515021790555060008060009054906101000a900473ffffffffffffffffffffffffffffffffffffffff1673ffffffffffffffffffffffffffffffffffffffff1647604051610ad890611971565b60006040518083038185875af1925050503d8060008114610b15576040519150601f19603f3d011682016040523d82523d6000602084013e610b1a565b606091505b5050905080610b5e576040517f08c379a0000000000000000000000000000000000000000000000000000000008152600401610b5590611c4a565b60405180910390fd5b60006004819055506000600660016101000a81548160ff0219169083151502179055507f275126d3cdd034cd66bd6e112aa4bdbaa855f34df72ee9924468505ace5abd4d60405160405180910390a150565b60058181548110610bc057600080fd5b9060005260206000209060030201600091509050806000018054610be390611ace565b80601f0160208091040260200160405190810160405280929190818152602001828054610c0f90611ace565b8015610c5c5780601f10610c3157610100808354040283529160200191610c5c565b820191906000526020600020905b815481529060010190602001808311610c3f57829003601f168201915b5050505050908060010154908060020160009054906101000a900460ff16908060020160019054906101000a900460ff16905084565b60035481565b600160009054906101000a900473ffffffffffffffffffffffffffffffffffffffff1681565b600160009054906101000a900473ffffffffffffffffffffffffffffffffffffffff1673ffffffffffffffffffffffffffffffffffffffff163373ffffffffffffffffffffffffffffffffffffffff1614610d4e576040517f08c379a0000000000000000000000000000000000000000000000000000000008152600401610d45906117dc565b60405180910390fd5b6000811015610d92576040517f08c379a0000000000000000000000000000000000000000000000000000000008152600401610d8990611cb6565b60405180910390fd5b600454811115610dd7576040517f08c379a0000000000000000000000000000000000000000000000000000000008152600401610dce90611d48565b60405180910390fd5b600560405180608001604052808481526020018381526020016001151581526020016000151581525090806001815401808255809150506001900390600052602060002090600302016000909190919091506000820151816000019080519060200190610e45929190611022565b506020820151816001015560408201518160020160006101000a81548160ff02191690831515021790555060608201518160020160016101000a81548160ff02191690831515021790555050507f42b4ffa6b26ed6a5ced111f7f6726ffca1ed194bf62f22f151829f2670514b8f828260016000604051610ec994939291906113c9565b60405180910390a15050565b60008054906101000a900473ffffffffffffffffffffffffffffffffffffffff1681565b60008054906101000a900473ffffffffffffffffffffffffffffffffffffffff1673ffffffffffffffffffffffffffffffffffffffff163373ffffffffffffffffffffffffffffffffffffffff1614610f87576040517f08c379a0000000000000000000000000000000000000000000000000000000008152600401610f7e9061164e565b60405180910390fd5b8042610f939190611d68565b60025410610fd6576040517f08c379a0000000000000000000000000000000000000000000000000000000008152600401610fcd90611e30565b60405180910390fd5b8042610fe29190611d68565b6002819055507f9113684b7f99581828413c80e8a4de06d7f9e1f19850a40671ff3cad16ed14ef8160405161101791906110de565b60405180910390a150565b82805461102e90611ace565b90600052602060002090601f0160209004810192826110505760008555611097565b82601f1061106957805160ff1916838001178555611097565b82800160010185558215611097579182015b8281111561109657825182559160200191906001019061107b565b5b5090506110a491906110a8565b5090565b5b808211156110c15760008160009055506001016110a9565b5090565b6000819050919050565b6110d8816110c5565b82525050565b60006020820190506110f360008301846110cf565b92915050565b6000604051905090565b600080fd5b600080fd5b611116816110c5565b811461112157600080fd5b50565b6000813590506111338161110d565b92915050565b60006020828403121561114f5761114e611103565b5b600061115d84828501611124565b91505092915050565b600081519050919050565b600082825260208201905092915050565b6000819050602082019050919050565b600081519050919050565b600082825260208201905092915050565b60005b838110156111cc5780820151818401526020810190506111b1565b838111156111db576000848401525b50505050565b6000601f19601f8301169050919050565b60006111fd82611192565b611207818561119d565b93506112178185602086016111ae565b611220816111e1565b840191505092915050565b611234816110c5565b82525050565b60008115159050919050565b61124f8161123a565b82525050565b6000608083016000830151848203600086015261127282826111f2565b9150506020830151611287602086018261122b565b50604083015161129a6040860182611246565b5060608301516112ad6060860182611246565b508091505092915050565b60006112c48383611255565b905092915050565b6000602082019050919050565b60006112e482611166565b6112ee8185611171565b93508360208202850161130085611182565b8060005b8581101561133c578484038952815161131d85826112b8565b9450611328836112cc565b925060208a01995050600181019050611304565b50829750879550505050505092915050565b6000602082019050818103600083015261136881846112d9565b905092915050565b600082825260208201905092915050565b600061138c82611192565b6113968185611370565b93506113a68185602086016111ae565b6113af816111e1565b840191505092915050565b6113c38161123a565b82525050565b600060808201905081810360008301526113e38187611381565b90506113f260208301866110cf565b6113ff60408301856113ba565b61140c60608301846113ba565b95945050505050565b600073ffffffffffffffffffffffffffffffffffffffff82169050919050565b600061144082611415565b9050919050565b61145081611435565b82525050565b600060208201905061146b6000830184611447565b92915050565b600080fd5b600080fd5b7f4e487b7100000000000000000000000000000000000000000000000000000000600052604160045260246000fd5b6114b3826111e1565b810181811067ffffffffffffffff821117156114d2576114d161147b565b5b80604052505050565b60006114e56110f9565b90506114f182826114aa565b919050565b600067ffffffffffffffff8211156115115761151061147b565b5b61151a826111e1565b9050602081019050919050565b82818337600083830152505050565b6000611549611544846114f6565b6114db565b90508281526020810184848401111561156557611564611476565b5b611570848285611527565b509392505050565b600082601f83011261158d5761158c611471565b5b813561159d848260208601611536565b91505092915050565b600080604083850312156115bd576115bc611103565b5b600083013567ffffffffffffffff8111156115db576115da611108565b5b6115e785828601611578565b92505060206115f885828601611124565b9150509250929050565b7f6f6e6c7920656d706c6f79657200000000000000000000000000000000000000600082015250565b6000611638600d83611370565b915061164382611602565b602082019050919050565b600060208201905081810360008301526116678161162b565b9050919050565b7f496e76616c696420696e64657800000000000000000000000000000000000000600082015250565b60006116a4600d83611370565b91506116af8261166e565b602082019050919050565b600060208201905081810360008301526116d381611697565b9050919050565b7f4e487b7100000000000000000000000000000000000000000000000000000000600052603260045260246000fd5b7f616c726561647920756e6c6f636b656400000000000000000000000000000000600082015250565b600061173f601083611370565b915061174a82611709565b602082019050919050565b6000602082019050818103600083015261176e81611732565b9050919050565b600060208201905061178a60008301846113ba565b92915050565b7f6f6e6c7920667265656c616e6365720000000000000000000000000000000000600082015250565b60006117c6600f83611370565b91506117d182611790565b602082019050919050565b600060208201905081810360008301526117f5816117b9565b9050919050565b7f636f6e7472616374206c6f636b65642f7265656e7472616e742063616c6c0000600082015250565b6000611832601e83611370565b915061183d826117fc565b602082019050919050565b6000602082019050818103600083015261186181611825565b9050919050565b7f756e6c6f636b2072657175657374206669727374000000000000000000000000600082015250565b600061189e601483611370565b91506118a982611868565b602082019050919050565b600060208201905081810360008301526118cd81611891565b9050919050565b7f616c726561647920706169640000000000000000000000000000000000000000600082015250565b600061190a600c83611370565b9150611915826118d4565b602082019050919050565b60006020820190508181036000830152611939816118fd565b9050919050565b600081905092915050565b50565b600061195b600083611940565b91506119668261194b565b600082019050919050565b600061197c8261194e565b9150819050919050565b7f5472616e73666572206661696c65640000000000000000000000000000000000600082015250565b60006119bc600f83611370565b91506119c782611986565b602082019050919050565b600060208201905081810360008301526119eb816119af565b9050919050565b7f4e487b7100000000000000000000000000000000000000000000000000000000600052601160045260246000fd5b6000611a2c826110c5565b9150611a37836110c5565b925082821015611a4a57611a496119f2565b5b828203905092915050565b6000611a6082611415565b9050919050565b611a7081611a55565b82525050565b6000604082019050611a8b6000830185611a67565b611a9860208301846110cf565b9392505050565b7f4e487b7100000000000000000000000000000000000000000000000000000000600052602260045260246000fd5b60006002820490506001821680611ae657607f821691505b60208210811415611afa57611af9611a9f565b5b50919050565b7f66756e6374696f6e206973206c6f636b65640000000000000000000000000000600082015250565b6000611b36601283611370565b9150611b4182611b00565b602082019050919050565b60006020820190508181036000830152611b6581611b29565b9050919050565b7f796f752063616e6e6f74207769746864726177206574686572206265666f726560008201527f20646561646c696e650000000000000000000000000000000000000000000000602082015250565b6000611bc8602983611370565b9150611bd382611b6c565b604082019050919050565b60006020820190508181036000830152611bf781611bbb565b9050919050565b7f74726173666572206661696c6564000000000000000000000000000000000000600082015250565b6000611c34600e83611370565b9150611c3f82611bfe565b602082019050919050565b60006020820190508181036000830152611c6381611c27565b9050919050565b7f616d6f756e742073686f756c64206265203e3d30000000000000000000000000600082015250565b6000611ca0601483611370565b9150611cab82611c6a565b602082019050919050565b60006020820190508181036000830152611ccf81611c93565b9050919050565b7f616d6f756e742063616e6e6f74206265203e20636f6e74726163742062616c6160008201527f6e63650000000000000000000000000000000000000000000000000000000000602082015250565b6000611d32602383611370565b9150611d3d82611cd6565b604082019050919050565b60006020820190508181036000830152611d6181611d25565b9050919050565b6000611d73826110c5565b9150611d7e836110c5565b9250827fffffffffffffffffffffffffffffffffffffffffffffffffffffffffffffffff03821115611db357611db26119f2565b5b828201905092915050565b7f6e657720646561646c696e652073686f756c64206265206166746572206f726960008201527f67696e616c20646561646c696e65000000000000000000000000000000000000602082015250565b6000611e1a602e83611370565b9150611e2582611dbe565b604082019050919050565b60006020820190508181036000830152611e4981611e0d565b905091905056fea2646970667358221220d319abb5d219924b4e7cfc33530498caa7dd98c17919d9d97edc81ce8c350b6264736f6c634300080a0033",
  "immutableReferences": {},
  "source": "// SPDX-License-Identifier: MIT\r\npragma solidity >=0.4.21 <0.9.0;\r\n// allows to pass arrays, structs, dynamic and nested variables to function and return same from functions\r\n// after latest solidity update, pragmra abicoder v2 is included by default.\r\n// pragma experimental ABIEncoderV2;\r\n\r\ncontract Delance {\r\n  // properties of freelancer-employee contract\r\n  address public employer;\r\n  address public freelancer;\r\n  uint256 public deadline; // deadline will start counting from time of uploading the block\r\n  uint256 public price;\r\n  uint256 public contract_balance;\r\n\r\n  constructor (address payable _address, uint256 _deadline, uint256 _price) payable {\r\n    require(_address != msg.sender, \"employer cannot hire himself\");\r\n    require(msg.value == _price, \"Deposit amount = price of ether\");\r\n    employer = payable(msg.sender);\r\n    freelancer = _address;\r\n    deadline = block.timestamp + _deadline;\r\n    price = _price;\r\n    contract_balance = _price;\r\n  }\r\n\r\n  // this function is used if anyone wants to send ether to the contract.\r\n  // It could be employer, freelancer, or even you, or me :)\r\n  receive() external payable {}\r\n\r\n  // implementing the freelencer sending request part of the contract.\r\n  // struct to store payment request of freelancer.\r\n  struct Request {\r\n    string title;\r\n    uint256 amount; // why uint256?? - same as uint, no difference\r\n    bool locked;  // initialially request will be locked, employer will unlock it and transfer required ether.\r\n    bool paid;\r\n  }\r\n\r\n  // creating a modifier - function restrictor so only freelancer can call certain functions\r\n  // it is useful if you do not want to repeat require statement again and again.\r\n  modifier onlyFreelancer() {\r\n    require(msg.sender == freelancer, 'only freelancer');\r\n    _;\r\n  }\r\n  modifier onlyEmployer(){\r\n    require(msg.sender == employer, 'only employer');\r\n    _;\r\n  }\r\n\r\n  // event is same as javascript console.log() function.\r\n  // It prints the event to the console. These events can checked\r\n  // to see if a transaction actually happened or not.\r\n  event RequestCreated(string _title, uint256 _amount, bool locked, bool paid);\r\n  event RequestUnlocked(bool locked);\r\n  event RequestPaid(address payable freelancer, uint256 amount);\r\n  event DeadlineChanged(uint new_deadline);\r\n  event Withdraw_All_Ether();\r\n\r\n  Request[] public requests;\r\n  function createRequest(string memory _title, uint256 _amount) public onlyFreelancer {\r\n    require(_amount>=0, 'amount should be >=0');  // should be handled by uint itself\r\n    require(_amount <= contract_balance, \"amount cannot be > contract balance\");\r\n\r\n    requests.push(Request(_title, _amount, true, false));\r\n    emit RequestCreated(_title, _amount, true, false);\r\n  }\r\n  function getAllRequest() public view returns(Request[] memory) {\r\n    return requests;\r\n  }\r\n\r\n  function unlockRequest(uint256 _index) public onlyEmployer {\r\n    require(_index < requests.length && _index>=0, \"Invalid index\");\r\n\r\n    // storage keyword makes variable \"request\" behaves as a pointer\r\n    Request storage request = requests[_index];\r\n    require(request.locked == true, 'already unlocked');\r\n    request.locked = false;\r\n\r\n    emit RequestUnlocked(request.locked);\r\n  }\r\n\r\n  // sending money to the freelancer for the request\r\n  bool locked = false;\r\n  function withdraw(uint _index) public onlyFreelancer {\r\n    require(_index < requests.length && _index>=0, \"Invalid index\");\r\n    require(locked == false, 'contract locked/reentrant call');\r\n\r\n    Request storage request = requests[_index];\r\n    require(request.locked == false, 'unlock request first');\r\n    require(request.paid == false, 'already paid');\r\n\r\n    locked = true;\r\n    (bool success, ) = freelancer.call{value: request.amount}('');\r\n\r\n    require(success, 'Transfer failed');\r\n    contract_balance -= request.amount;\r\n    request.paid = true;\r\n    locked = false;\r\n    emit RequestPaid(payable(msg.sender), request.amount);\r\n  }\r\n\r\n  function ChangeDeadline (uint256 new_deadline) public onlyEmployer {\r\n    require(deadline < block.timestamp + new_deadline, \"new deadline should be after original deadline\");\r\n    deadline = block.timestamp + new_deadline;\r\n    emit DeadlineChanged(new_deadline);\r\n  }\r\n\r\n  bool locked2 = false;\r\n  function WithdrawAll() public onlyEmployer {\r\n    require(locked2 == false, \"function is locked\");\r\n    require(block.timestamp > deadline, \"you cannot withdraw ether before deadline\");\r\n\r\n    locked2 = true;\r\n    (bool success, ) = employer.call{value: address(this).balance }('');\r\n    require(success, \"trasfer failed\");\r\n\r\n    contract_balance = 0;\r\n    locked2 = false;\r\n    emit Withdraw_All_Ether();\r\n  }\r\n\r\n}\r\n",
  "sourcePath": "D:\\IBC DApp\\delance-final-main\\contracts\\Delance.sol",
  "compiler": {
    "name": "solc",
    "version": "0.8.10+commit.fc410830.Emscripten.clang"
  },
  "schemaVersion": "3.4.3",
  "updatedAt": "2021-12-14T15:28:05.210Z",
  "networkType": "ethereum",
  "devdoc": {
    "kind": "dev",
    "methods": {},
    "version": 1
  },
  "userdoc": {
    "kind": "user",
    "methods": {},
    "version": 1
  }
}